:020000022000DC
:10700000305E0320017102005B63030045EF030063
:107010005B6303005B6303005B630300000000002D
:107020000000000000000000000000005B6303009F
:107030005B630300000000005B6303005B6303000D
:107040009D4F03005B6303005B6303005B6303000E
:107050005B6303005B630300956A03005B630300EB
:107060005B6303005B6303005B6303005B6303001C
:107070005B6303005B6303005B6303005B6303000C
:107080005B6303006D6B03005B6303005B630300E2
:107090005B6303005B630300D18203005B63030057
:1070A0005B6303005B6303005B6303005B630300DC
:1070B0005B6303005B63030000000000000000004E
:1070C0005B6303005B6303005B6303005B630300BC
:1070D0005B6303005B6303005B630300BD4E03005F
:1070E0005B6303005B6303005B630300000000005D
:1070F000000000005B630300000000005B6303000E
:107100000FF02CF90E480F490022814201D004C033
:10711000FBE70D480D490E4A814202D008CA08C05B
:10712000FAE70C484FF47001026842EA010202607B
:10713000BFF34F8FBFF36F8F0DF0B2FE00DE000084
:1071400074000220D09D0220000002207400022062
:10715000402E040088ED00E00146806840B101380F
:107160008860D1E9000290421EBF821C0A6070470D
:10717000002070470020704701207047016999B1D5
:10718000B0B502AFD0E9022401390161551C856018
:107190004569D0E900312C440134C460184605F03B
:1071A000A7FA01460120B0BD00207047F0B503AF3B
:1071B0002DE9000FE1B0D0F800B088460390804D73
:1071C0009BF808000B91CDF820B090B1032815D1A1
:1071D000594611F8140F049108390291DFE810F0B4
:1071E00006007F00DA0BD8002A001B000298006816
:1071F00091E0DBF80000CBF8040084E05D4615F870
:10720000140FDFE810F09C006900C70BA90005000F
:10721000D8F800406FE05E4616F8360FDFE810F051
:1072200005006200BA0B1F000D00DBE906A0DBF8C9
:10723000202022E1D8F80040B9E05C4614F8680F3D
:10724000DFE810F008005600A80B310527003300D6
:1072500064033105DBF850A0CDE9094698E1DA4630
:107260001AF84A0FDFE810F005004100960B0A00FB
:107270008506CDE909A6DBF838A031E10A965E461D
:1072800016F8810FE0B1032800F09C874D480EF0FE
:10729000E5FFCDE909465E4616F89C0FB0B103281C
:1072A00000F0728248480EF0D9FF9BF879100BF17C
:1072B0006C0071B1032900F0F28244480EF0CEFF59
:1072C0009BF88300DBE91D4900F069BFDBE9244935
:1072D00050E2DBF87410DFE23D480EF0BFFF3D489E
:1072E0000EF0BCFF3C480EF0B9FF3C480EF0B6FF74
:1072F0003B480EF0B3FF16F089FF10B9DBF8100021
:1073000021E00420C9E35A46002142F80C0F029202
:1073100002F8081F0492CBF8100090F8C01059B37F
:1073200001205D4605F8140F00202B22287055F827
:10733000100C45F8080C681C1AA917F068F8DBF85F
:107340000C00CBF8100090F8C01071B100217C3017
:107350008BF82010CBF8180016F027FEC0B20528D5
:1073600000F09A8316F0EAFDC5E70120144D8BF872
:107370001400DBF80400C6E700218BF82C108BF812
:10738000201000F1C4017C30CBF82410CBF8180099
:1073900016F00BFEC0B2052807D19BF82C0028B3CD
:1073A00003282ED00F480EF059FF16F0C7FD16F037
:1073B0002DFF002800F03387042000F0FEBC00BF42
:1073C000007002400C0904001C090400CC080400F1
:1073D0005CF30300ACF303006CF303009CF30300C5
:1073E000DCF30300DC080400949C02200020CBF8AE
:1073F0002850C5F800024FF40001DBF82800C0F85F
:1074000004135FF81C0016F069FDD5F85C01002834
:1074100000F09D83DBF8280000215E46C0F85C1177
:10742000DBF82820D2F88004D2F88434D2F88844DB
:10743000C0B2D2F88C54DBB22D0664F3174545EA8E
:1074400003231844D2F89034D2F89444D2F89854D4
:10745000D2F89C2406F8361FD9B2E3B2120656F8C9
:1074600026AC41EA0321EBB246F81EAC42EA0342E5
:1074700046F81A0C0A4446F8162C030C594621F813
:107480002C3FC0F34114C0F3C0130A960C7200F0F5
:107490001F04042C41E902024B7228BF0424000A95
:1074A000CC718871100C002B88804A8056D01AA8A5
:1074B00018C9021D18C20988118011A938C80A46C6
:1074C00038C2008810800BF13C00CBF838A01CC9F2
:1074D0001CC0098801800020594601F84A0F099113
:1074E0000BF14000CBF83CA00CA90CC80CC10088E3
:1074F00008809AF8BE00DAE900CE0690F346BAF8A2
:10750000C4000790E1469DF838109DF83700BDF89B
:1075100034200229059200F0A680002940F0B280B4
:10752000002800F01E82012800F0F581022840F0BA
:10753000A9809DF83600002840F00F859DF9321093
:1075400001F00F00002900F1B583E64A40F2444102
:107550000828C0F0B583E44A00F0BEBD0DF168080C
:107560000A2208F10A0016F052FF0CA898E87C00E5
:1075700001467CC10BF15401CBF850A090E87C008F
:1075800000207CC1594601F8680F0991DDF82C8074
:107590000BF154000BF15E010A22CBF840A016F06B
:1075A00036FFBBF858000025CBF84400BAF8C410E9
:1075B000CBF84810CBF84C50DAF80440844213D290
:1075C0000EF0F6FFC9480EF053FFDBF844000EF052
:1075D00023FF20460EF020FF0FF010F8DBF84000EC
:1075E000C430CBE91B055BE3DAF800102246C04B40
:1075F00001F005FC0246DBF84830BE480DF1680991
:107600000C46009009F10800114622460CF0A4FB3C
:1076100011A899E87C0001467CC10BF1700190E84B
:107620007C0001207CC18BF884000020DBE91C4930
:1076300000210BF17806CBF86C1020B930460DF024
:10764000E7FA044689465CB100209BF884508BF829
:107650008400DBF86C00012873D1DBF8700078E05F
:10766000DBF84CA0D3E068B9DAF8746056B19AF848
:1076700078009DF83610814204BFBDF8320007281B
:1076800000F00E82DAF86C000AF12C050DF1680AA0
:107690000DF13008C600002E00F05F84D5E900101F
:1076A0004246C46A50466346CDF800E0A0471A98A7
:1076B00020B9083E0835CC46DE46ECE7DDE91BC6BE
:1076C000BCF1000F00F04984059A4FF00009079BB8
:1076D00000251046934238BF18460699002918BF66
:1076E0001046122B28BF10460246864238BF32464B
:1076F000DDF82C80DDF820B0B04209D9002B00F075
:10770000D484B2FBF3F000FB1320B0FA80F04509FB
:107710007948614600901AAC20460CF02DFB012000
:107720000BF14C0181E821020BF1580194E82C0087
:107730002CC16C4DDDF824A08BF87000002000F007
:10774000FABC30460DF064FA0122CBF87410CBE994
:107750001B2000215E4606F89C1FB0FA80F040090D
:10776000B07056F85C0C7570C43046E9034946F8B1
:10777000040C5C4D0020CBE92249C5F8280101200A
:10778000E8645E48C5F80403D8F800405FF8A80331
:1077900016F0A4FBD5F8280130B1DBE922231AA8A2
:1077A000002101F0ABFD0BE0D5F8000120B9D5F8C0
:1077B0005C01002800F0F98240F20110ADF8680089
:1077C000DDE91A1001223270CAB2022A00F0EF82FB
:1077D000CA0710D0090A41EA00640EF0E9FE4848E1
:1077E0000EF046FE04F001000CF006FB0EF006FF62
:1077F000DDE909465BE2DBE9121202EB000ACBF895
:107800004CA0814203D8DBF84400824567D1DBF805
:107810004090D9F804108A4500F242840BF15400DC
:10782000D9F80080CBE90E8A11A90CC80CC10088D8
:1078300008809DF84C00E8B3D9F86C0009F12C06DB
:107840000DF14409C400002C00F02282F6E8020188
:10785000424653468D6A4946A847C1B2083C0229B0
:10786000F1D0DDF82C80C00740F01482DBF8400036
:10787000DDE9094600F1C40190F8C320002A41D097
:1078800090F8BE0000228BF878000BF16C008BF8AA
:107890007920CBF87410134D0022C0E900120CF0CF
:1078A000D7FD012000218BF87900DBF8400080F83B
:1078B000C310FCE19DF84B00002800F0CA800128AD
:1078C00065D00228B8D19DF84A00BDF844100128BF
:1078D00000F0E980032840F0DB810120E4E0DBF8E0
:1078E0006C00A3E600700240480704003500000069
:1078F000BCF30300CCF303008CF30300010480000D
:1079000036000000D84D0020CBE91B100BF16C00B5
:107910000CF09EFDCBE1DAF82810BDF83200814270
:1079200040F21B839DF836100A2900F014810029CB
:107930007FF4A8AECD4B022061467246022601F0CC
:107940005EFA00220223ADF86820C94A00921AAA02
:107950000FF0DEFCCC46BBF1010F3FF6B5AEC54AD9
:10796000CDE19DF83600002800F0C080062800F028
:10797000AB80082840F0F182BEF1000F00F0A38335
:107980009AF8BF000438B0FA80F04009EBE09DF8A7
:1079900046A04FF00008D9F82810514509EB4A00DD
:1079A00088BF00F1180840F273819DF84A000B2847
:1079B00040F06E81BDF8446098F80110F0B2814249
:1079C00040F2B080D9E902010025002488F8006067
:1079D000CDE916011AA816A90FF012FC1A98012871
:1079E00040F0A8801C9991B316F055FA20D00428D5
:1079F00011D00528EED118A80FF0C6FBC00726D17C
:107A0000E0B25045E6D198F80020E8B2101A16F01E
:107A1000BEFA5446DEE718A80FF0B6FBC00716D131
:107A200018A80C460FF0B0FBC00710D10D46D1E7E7
:107A300018A80FF0CFFB000409D118A80FF0A4FB81
:107A4000C00704D118A80FF09FFBC007C2D08A4816
:107A500098E19DF84A00411E082900F21981BDF8FD
:107A60004400DFE811F009001501A20015018400AF
:107A7000150115011501B100012840F00981002010
:107A800016F07BFA002D3FF4F1AEF4E802010A6A29
:107A900000219047083DF5E70320287004208FE17E
:107AA000DAF870C010E60020002940F0F1809DF85F
:107AB00046100A0700F0278101F0870160F30821D2
:107AC0006948C0F8181520E1BDF83060300A012877
:107AD00000F01882022800F0E881032800F0E98114
:107AE0000F2840F03A82DAE904C6EDE5634B022044
:107AF000614672469AF8C14002269AF8C25001F0D7
:107B00007EF95F4A64F34105ADF8685002230092A4
:107B10001AAA0FF0FDFBCC46BBF1010F3FF6D4AD26
:107B2000584AECE00EF044FD57480EF0A1FC0EF070
:107B300065FDADE016F0F1FA002D3FF497AEF4E8E4
:107B4000020132464B6A51469847083DF4E703204C
:107B50008BF82C0031E1BEF1000F00F0B7820AF182
:107B6000180111F810008CF800000126ACE5411E48
:107B70007F2980F08D8089F8BE00032089F8BF003E
:107B800009F12C04D9F86C000121DDF82C80C50026
:107B900089F8C310002D3FF469AEF4E8020299F8A9
:107BA000BE1052699047083DF4E7012870D10120CA
:107BB00016F0E3F9002D3FF459AEF4E802010A6A29
:107BC00001219047083DF5E7002800F0A180012839
:107BD0005ED10420D9F8288089F8BF0009F1180681
:107BE000D9E902014FF0000ACDE9160118AC0025D1
:107BF0001AA816A90FF004FB1A98012840F0C980B2
:107C00001C9979B316F047F91FD0042811D0052824
:107C1000EED116F0F3F9C00724D1E8B2804540F266
:107C20004D8216F810005FFA8AF2801A16F0AFF94A
:107C3000DEE716F0E3F9C00714D120460D460FF039
:107C4000A3FAC0070ED18A46D2E720460FF0C2FA47
:107C5000000407D116F0D2F9C00703D116F0CEF90F
:107C6000C007C5D009488DE0007002404CF2030007
:107C70005CF203006CF20300DCF203000CF2030080
:107C80001CF203002CF2030037000000BCF20300DA
:107C9000DDF82C80DBF840100020C431CBE91B104C
:107CA000CA4DDDE909460BF16C000CF0E1FB012047
:107CB0002070B3E2C54A4FF48461082880F00A823C
:107CC0001144C34B7246022651F8204002206146FF
:107CD00001F095F84FF0FF32022312FA84F2B2FA63
:107CE00082F25209ADF86820BA4A00921AAA0FF03F
:107CF0000FFBCC46BBF1010F3FF6E6ACB64A0220C3
:107D000059460DF03DFBB1494865DDF82C80ADE5E5
:107D100099F8BF00DDF82C8002283FF4A7AD0320BE
:107D20000DF1680A89F8BF00D9E90201CDE9160111
:107D300016AD18AC504629460FF062FA1A98012881
:107D400040F0EC801C99E1B116F0A5F80CD00428A5
:107D50000FD00528EED116F051F9C00711D1084611
:107D600000210CF0E5F8E5E720460FF033FA0004B7
:107D700007D116F043F9C00703D116F03FF9C00749
:107D8000D8D0964800901AAA95482B21954B0EF012
:107D9000EFF816F0C2F9002D3FF468ADF4E80201E7
:107DA0008A6901219047083DF5E703203070099961
:107DB000042008700A9908700520049908700320AF
:107DC000039D21468BF8080068680BF00BFCA8683F
:107DD000214609F063FCEE68307CDFE810F0060015
:107DE000DB05DB050B00CD03F303D6E90040C6E954
:107DF000024027E2354615F8640FDFE810F0060070
:107E00006F01CB05360034000900D6E905041FE2F6
:107E1000B146099519F8F40F00283FD0032840F027
:107E20006181B2461AF8F00F002800F07080032834
:107E300040F06081B3461BF8EC0F002800F07D8015
:107E4000032840F0A185314611F8B10F0A91DFE80F
:107E500010F005009E05A10544036103D6E9284200
:107E6000D6F8AC80EEE20995ACE2B14619F8E40F21
:107E7000B8B1032840F03A81B2461AF8E00F002862
:107E800048D00328099540F03981B3461BF8DC0F30
:107E9000002855D0032800F03A82CFE1D6E91A0431
:107EA000A1E2D6E91A41306FE4E1DAE902C6FFF750
:107EB0000BBCF3B2032B62D80AF1080080217C22AC
:107EC000DFE803F002484346BEF1000F00F01F81D7
:107ED0000420BEF1010F8CF8000000F01B8103208C
:107EE000BEF1020F8CF8010040F219810920BEF1A9
:107EF000030F8CF8020000F0188104268CF8036050
:107F0000FFF7E2BB0AF1AC0C1226FFF7DDBBD6E9A6
:107F10001C046EE2D6E91D41F06FB3E1D9F86C00A4
:107F200009F12C04C500002D3FF4A0ACF4E80201D7
:107F30008A6900219047083DF5E7D6E91E8460E292
:107F4000D6E92041D6F88800A5E18821842201E005
:107F500090218C224158805828BBDDF820B00020A9
:107F6000DDF82C80DDE909A6DBF83C10C431CBE953
:107F700013100BF14C000CF07BFA144D4BE1DAF8C6
:107F80006C000AF12C05BDF832A0C400002CE4D02E
:107F9000F5E8020152460B6B31469847083C002831
:107FA000F4D0DE46CC46BEF1010F40F2AB80032296
:107FB00002264FF0000A01448CF801200191BAF129
:107FC000000F11D0002580465B4642E00070024061
:107FD0008CF203009CF20300ACF20300CCF203002D
:107FE0008C1E0400A40604000199884254D08046E7
:107FF0005B4618F9011BCDB2B1F1FF3F26DC427898
:1080000005F01F01E02D02F03F0212D38478F02D1D
:1080100004F03F0444EA821210D3C47801F007014F
:1080200000F1040804F03F0444EA821242EA814568
:1080300008E042EA811500F1020807E042EA013552
:1080400000F103080020B0EB154F1BD11FFA85FA91
:108050000025B41C9C422CD2DFF8980B21460090DE
:10806000304662460EF0A0FEDFF88C2B0223ADF8FE
:1080700068A000921AAA0FF04BF9CC464046AA46D7
:1080800026469CE705F57F00372161F39F254FF4D5
:10809000584141EA902ADCE78CF80060FFF714BBF6
:1080A000DFF8282B50460DF06BF9DFF8540B0EF07B
:1080B000C2F80EF07DFADFF8380BB9E0DFF8082BD4
:1080C00041460CF0B2FFDFF8102B01E0DFF8042B83
:1080D00015F0FBFFDFF8F82A15F0C0FFDFF8400BC2
:1080E0000EF0BCF8DFF8280B0EF0B8F8DFF82C0B18
:1080F0000EF0B4F8DFF8140B0EF0B0F8DFF8180B40
:108100000EF0ACF80EF054FADFF8E00A90E0DFF879
:10811000D82ADDE7DFF8CC2A012015F021FFDFF8AF
:10812000BC2A022002210CF080FFDFF8B42A0320D1
:1081300003210CF07AFF00210BF14C06CBF8641000
:1081400020B9304600F044FE04468946002C61D038
:1081500000209BF870508BF87000DBF86400012859
:1081600002D1DBF8680007E0304600F031FE012262
:10817000CBF86C10CBE9192000215E4606F8811F70
:10818000B0FA80F0400956F8451C7570C431B070E3
:1081900046F80D4C46F8099C46F8051CE94D8BF84D
:1081A00080000020C5F8280121469BF880004A463F
:1081B0008000C0B2C5F80002002001F0EDF8E248EE
:1081C000C5F80403D8F80040D4E90010896888474E
:1081D000DFF8F00915F082FED5F8280138B10BF16F
:1081E000640901208BF8810099E81102A3E7D5F812
:1081F000000110B9D5F85C01A8B1012030700EF073
:10820000D7F9DFF8F8090EF033F901200BF0F4FD8F
:108210000EF0F4F90A9E01208AF800003070DBF8B5
:108220001000FFF77AB8032030708AF80000C1E52B
:108230000EF01EF90EF0E2F90EF02AF9DFF8D4097B
:108240000EF00CF80021354605F8641F45E91404CA
:10825000C6E9070406F12400402116F089FBB14667
:10826000202049F8684F0022A9F12401C9E9011032
:1082700009F87C2F0022B2460AF8E02F4AE91B4198
:108280004AF8640C0022B3460BF8DC2F09954BE941
:1082900017414BF8540C1F28C6E92341C6F8940037
:1082A00040F22282A088C6F8980020680068BFF3D8
:1082B0005F8FC6E92700D6E92423DFF86C19009107
:1082C00020210EF071FD0246DFF86009D6F89830E3
:1082D0000C4600901AAD1146224628460BF03CFD94
:1082E00095E80E0006F1A4000EC006F1A4000CF003
:1082F0008FFC002846D00022C6F8B81086F8D82097
:10830000D6F88C20D8F800400432C6E92C2006F1BB
:10831000B00111A8224600F001FE9DF84400022899
:1083200000F0C980C00719D0D6F88C1000229DF843
:108330004500DFF8FC580968BFF35F8F0A60012130
:1083400086F8E41086F8E01086F8DC10022111EAC5
:10835000400080F0020400F01D8124E11299D6F85B
:10836000A000D6F898200844C6F8A000914202D395
:10837000202840F09580D6F88C0000210068BFF3DB
:108380005F8F0160D6E92701002994D001248BF882
:1083900000408AF8004089F8004010B1DFF890589A
:1083A000F8E0F0690022016886F8742006F12402E2
:1083B0003167C6E91A0206F175001AA940F21B12CC
:1083C00016F025F806F16800414608F0FFF900288C
:1083D0006DD10020B14609F8F40FA9F1D00459F885
:1083E000D40C49E923040021B2460AF8F01F4AE9F7
:1083F00020040021B3460BF8EC1F00F10C084BE9F8
:108400001D8406F18005202115F037FF1AA82946A2
:1084100022460CF037FD1A98072821D11B9A2846CE
:10842000DFF8103800210BF079FC04460A4630468C
:10843000002100F8B11F0A9040F8058C40F8114C5B
:1084400040F80D2C212AC6F8A88080F08582B8F863
:108450000030202A0DD1DDF82C80002020220FE0F2
:10846000DDF82C80012002248BF800008AF800003F
:108470008BE0DDF82C80002B00F0158215F0C9FD93
:1084800086F8B000DFF8B807214600901AAD2846FC
:108490000BF072FC95E80E0006F1B4000EC00CE083
:1084A000D6F88C100968BFF35F8F08601DE70420C1
:1084B000DDF82C8041E0032038E006F1B4000CF038
:1084C00005FBB8B1D8F80040002286F8E820D6F8BD
:1084D000A820C6E93020C6F8C81006F1C000214621
:1084E00000F098FCC0B20228E7D003282ED1032068
:1084F0000A9A19E096F8B010022039B3D8F8004073
:1085000000200121D6F8A82086F8DC00C6E92D213C
:10851000C6F8BC0006F1B400214600F07BFC0A9AC4
:10852000C0B2032813D104201070052003218BF85A
:1085300000108AF8001089F80010099908700320CB
:1085400047E000BF00700240010480000A9A012148
:10855000022811708BF800108AF8001011D186F8EB
:108560006410212086F8F41015F021FC86F82040D4
:10857000D8F80040C6E9060115F011FE28B3042022
:1085800027E00224C00718BF00240120DFF8B456FA
:1085900089F800000EF00CF828460DF069FF15F080
:1085A00098FE0EF02BF80120002186F864004FF4AD
:1085B000804000240EF0D4FB86F82040C6E9060176
:1085C000D8F8004015F0EBFD10B9D6E9024039E6C5
:1085D000052030740398D0F810A09AF80800DFE85E
:1085E00010F005005400D90170011E00DAF80400F3
:1085F0000178002900F05B81CAF814000AF1300804
:10860000DAF80000002152468AF8191002F8391FE2
:108610000AF11001CAF834000A92099111E051469A
:1086200011F8390FA1F109080A9129390991DFE8F8
:1086300010F00600B101B10117000B00E400DAF8F8
:108640003400C8F800002DE09AF8440000219AF8A0
:108650004550C0078AF844101BD0DAF8406048E063
:10866000544614F8A80F40B1032817D1D3461BF87D
:10867000A40F30B1032869D0E0E50AF13C0207CA33
:108680001DE00AF1480207CA20E0DFF8C4050DF03A
:10869000E5FD0DF08DFFDFF8B005C9E5DFF8AC05AD
:1086A0000DF0DCFD0023514601F8383F01220C4655
:1086B000C1E9021204F8703F0B4643F8040F00238F
:1086C000D3460BF8A43FABF15C0307C30AF1540394
:1086D00007C34AB18188CAF8601000680068BFF318
:1086E0005F8FCAE919009AE00DF062FFDFF83405E8
:1086F0009EE50EF01DFE814630680B9AD0B94FF012
:10870000FF3029463060301D0FF098FE0446306877
:108710000D460130306048460EF02EFEE00712D0C4
:1087200001208AF845508AF844000B98D0F8009050
:1087300004206CE00DF03CFFDFF820050DF098FE02
:108740000FF06AFE76E5D8F80000ABE70B980AF167
:108750007801D0F8009011A84A4600F0DFFB9DF8A0
:10876000440002282ED0C00711D0DAF8541000229D
:108770009DF845000968BFF35F8F0A6001218AF800
:10878000A8108AF8A410022121EA40011FE01299E2
:10879000DAF86800DAF860200844CAF86800914204
:1087A00001D3012807D1DAF8540000210068BFF393
:1087B0005F8F01605DE0DAF854100968BFF35F8FE6
:1087C000086046E003208BF8000020701FE08AF864
:1087D0003C100DF0EDFEDFF87C040DF049FE9AF838
:1087E0003C000BF0F5FA0DF009FF4FF4004015F0D6
:1087F000DEFACAE910018AF848400B98D0F80090D8
:108800000AF1400015F062FB00289CD005200A996F
:1088100008704946099808F05DFE04205AE0DAE93C
:108820001623DFF80414009101210EF0BDFA024670
:10883000DFF8F803DAF860300D4600901AAE114602
:108840002A4630460BF088FA96E80E000AF16C00D2
:108850000EC00AF16C000CF0DBF950B10022CAF82E
:1088600080108AF8A020DAF854200432CAE91E20C9
:108870006CE7DAE919010029D1D0012100288BF831
:1088800000102170A3D19AF83850DFF8CC132802D9
:108890008AF83C50013001F12006CAE9106000203E
:1088A0008AF8440025E7DFF894030DF0C4FCC448BF
:1088B00047F6FF710EF054FACAE9040100208AF865
:1088C0001800D8F800900AF1100015F0FFFA0028FF
:1088D000EDD00320039C49468AF8080060690BF03C
:1088E000B9FEA669307EDFE800F0035555181A0975
:1088F00096E8070006F10C0307C34CE0B04618F8F1
:10890000390FDFE800F0033E478F3100D6E9070258
:10891000D6F82CA096F83A305EE0F1693DE0B0461A
:1089200018F8900FE8B1032828D1B2461AF88C0F36
:1089300008B3032828D1B3461BF8510FDFE810F025
:10894000050027002A00F6000E01D6E91042092A88
:10895000F56CB564C0F0B3800DF02AFEB648FFF7A1
:1089600067BCD6E90A5185E015F00AFCC4B2072CB1
:108970005DD10420C3E0D6E90C5181E0B9480DF087
:108980006DFCB7480DF06AFC9F480DF067FC9D48F0
:108990000DF064FCFEDE0168F1611AA84A4600F0A1
:1089A000BDF99DF86810022900F0AD80DDF869007E
:1089B000C907DDF86D209DF871304DD00021B0461B
:1089C00008F8391F58F825AC48F81D0C48F8192C40
:1089D00088F8013048F80DAC31464FF0000B41F8F3
:1089E000240F0C464A6044F80CBF01F10D02C1F897
:1089F00010B081F814B023701AA814F03DF91A9839
:108A000007281ED11B980021994B451C20462A4659
:108A10000BF072F9974B15F0E5FB86F894B0C6E9B8
:108A20000FA0716415F0ACFBC4B2072C66D0062C05
:108A30000ED00DF0BDFD90480DF01AFD15F049FC6B
:108A400004E00DF0B5FD89480DF012FD0DF0D6FDE6
:108A5000012088F80000A3E00024B04608F8904FF9
:108A600006F11C0158F8805C48E91D0208F86C3CCE
:108A700048E91A510020B2460AF88C0F4AE917510A
:108A80000020344644F8380F139060600820CDE988
:108A900011401AA811AA0BF041FB1A98072828D1F7
:108AA000139A092A31D20020B3460BF8510F4BF824
:108AB000114C4BF80D2C4BF8095C4BF8055C2B88DE
:108AC000082A02D10020082204E0002B3FF4EBAE7C
:108AD00015F09FFA86F850005948214600901AADCB
:108AE00028460BF049F995E80E0006F154000EC037
:108AF00010E0012002248AF8000045E0032088F8F5
:108B00000000052057E0032055E04A4B104608219D
:108B100015F022FB06F154000BF0D8FF90B10022B3
:108B2000B16686F88820B26CC6E9182006F16000AC
:108B3000494600F06FF9C0B20228EBD0032815D1E6
:108B4000032030E096F85010022079B10020012176
:108B5000B26C86F87C00C6E91521F06506F1540078
:108B6000494600F057F9C0B203281BD00121022466
:108B7000C2078BF800108AF8001018BF00240228E2
:108B800002D188F800100BE0012088F800000DF0F9
:108B90000FFD35480DF06CFC15F09BFB0DF02EFD24
:108BA000F068F8E604208BF8000003208AF8000043
:108BB00088F800000420307661B015F099B900BF44
:108BC0000080FFFF949C0220ECF20300ECF3030012
:108BD000580704007CF203003CF203001CF303007E
:108BE0002CF303000CF30300FCF203003800000038
:108BF000390000003CF303004CF303003400000094
:108C00007CF303006CF403003CF403007CF40300E9
:108C1000980A0400FCF303009CF40300880A040093
:108C2000E8FF03002D0000000CF403001CF4030017
:108C3000010100002CF403002C0000004CF40300A0
:108C40005CF403000001000021000000080804009B
:108C500054000400D7000000109D02208C0000008A
:108C60006006040018080400C5000000C7000000EA
:108C70003006040040060400C6000000F0B503AF53
:108C80002DE9000B894604460EF052FB8046206811
:108C9000B0BB4FF0FF30206094F87C00012804D175
:108CA00015F0DBF894F87C1000E00021D4E91D02F7
:108CB000904201D1C90715D0421C04F11401B2F150
:108CC000200300EB400018BF13460022636784F8BE
:108CD0007C200A5A0844807842EA0046350AF0B2FD
:108CE000022805D1D9E90012201D0DF0D9FF022676
:108CF00015F093F8F0B240EA0520BDE8000BF0BD96
:108D00000DF056FC04480DF0B3FB0FF085FB0DF0A1
:108D100075FC0DF0BDFB00BF8C000000F0B503AF8B
:108D20002DE9000B15460C4681460EF001FB8046EE
:108D3000206800283FD14FF0FF30206094F85C019C
:108D4000012804D115F089F894F85C1100E00021A5
:108D5000D4E95502904201D1C90711D0421C04F157
:108D60001401B2F1200300EB800018BF1346C4F8D1
:108D7000543111F81060002284F85C21022E06D1D3
:108D8000D5E90012201D0DF08BFF022607E001EB54
:108D9000400109F101000131092215F038FB20687A
:108DA00089F80060013020604046BDE8000BBDE856
:108DB000F0400EF0E1BA0DF0FBFB04480DF058FB5B
:108DC0000FF02AFB0DF01AFC0DF062FB8C00000086
:108DD000B0B502AF0546044655F80C0F30B1284631
:108DE0000BF074FE00B1B0BD0020286021680020A7
:108DF00021B1D4E9012160601046B0BDB0BDDCB541
:108E000004AF14460A4601460093002023460DF0A5
:108E1000CBFFDCBDF0B503AF4DF8048D064690F8EE
:108E20002800884650B103285DD1354615F8240F37
:108E3000A0B1032863D1346A206818E096E80700DF
:108E4000C6E90312817811F07F0171614ED00021D3
:108E5000354605F8241F45F80C0C00E0B069807811
:108E6000344610F07F0044F81C0F38D034620BF009
:108E700037F8D8E900120DF0E7FE244801234169D4
:108E8000BFF35F8F226802F01F029340204A1268EE
:108E90001A4004D0194002D1032403201AE0BAB1C9
:108EA000F1690122BFF35F8F01F01F0102FA01F1A6
:108EB000C94315F022FAFCD1BFF35F8F0124D6E934
:108EC0000312706986F8244000F066FA022002E07E
:108ED000012401202C7086F8284015F0DAB80DF036
:108EE00067FB0C4805E008480DF0B8F90DF060FB91
:108EF00009480DF0BDFA0DF081FB0DF0C9FA0148EB
:108F00000DF0ACF9C8F003001CF00300949C0220A3
:108F1000107502401B0000001E000000F0B503AFFA
:108F20002DE9C00B804691F8280091460D4650B1BE
:108F300003286BD12E4616F8240FA0B1032871D157
:108F40002C6A206818E095E80700C5E903128178CB
:108F500011F07F0169615CD000212E4606F8241FC4
:108F600046F80C0C00E0A86980782C4610F07F00D1
:108F700044F81C0F46D02C620AF0C2FFD9E9001257
:108F80000DF062FE2B482C4B4169BFF35F8F2268C6
:108F90001B6802F01F02D340DB071ED082F01002D4
:108FA000D140C90725D0E9690122BFF35F8F01F0E5
:108FB0001F0181F0100102FA01F1C94315F09DF97A
:108FC000FCD1BFF35F8F0120D5E90323696985F8E0
:108FD0002400684600F092F905E00120307040F26C
:108FE0000110ADF80000DDE90001C8E90001012031
:108FF00004E003200221307088F8001085F8280072
:1090000015F078B90DF0D4FA0C4805E008480DF0D9
:1090100025F90DF0CDFA0A480DF02AFA0DF0EEFA16
:109020000DF036FA01480DF019F900BFC8F0030041
:109030002CF00300949C0220147502401B000000D9
:109040001D000000F0B503AF2DE9000FADF5137D55
:10905000D0E902B30DF1380AD0E900820293036926
:10906000079343698469CDE9050352A80430019050
:109070000991D1E90010CDE903B80A9002F120006E
:1090800008900A980E4681427AD0099806F10A059E
:10909000444B0560D8F800000138C8F80000DBF840
:1090A000001008988A1C0AF039FE012973D901883A
:1090B00050460C9613F062FFA5F10A0051460A22B1
:1090C0000D9515F0A4F9DBF8000006990230CBF8F5
:1090D000000007980E68006806FB00F5002D5ED0C2
:1090E000002E55D0DDF808900B94B9F8000004EB81
:1090F00000080DF05DFA2C480DF0BAF9B9F800003F
:109100000EF05CFBB8FBF5FB0BFB1584274DB4FBA5
:10911000F6F84046A84708FB16494846A84758466F
:10912000A8470DF06BFA8DF84B8151468DF84A91A6
:109130008DF849B101980CC90CC00988018007203D
:109140008DF8480111A852A90FF0DCF99DF84400F0
:10915000082806D00DF02CFA15480DF089F90DF00D
:109160004DFA0598DDF810800B9CDDF80CB0013449
:109170008461D8F80000DDE90C6100287FF481AF3C
:109180000A98301A18BF01200DF5137D14F08BBF1B
:1091900008480CF04CFD094A02200CF0F1F8064892
:1091A0000CF045FDC8FF0300150100001964030021
:1091B00016010000C4250400B425040004070400BF
:1091C000F0B503AF2DE9000B0646D2E90009904641
:1091D0000C4648450DD000F10A053146C8F800504C
:1091E000C6E9000520460AF053FA20B928460C4685
:1091F000EFE7002000E001202146BDE8000BF0BDB4
:10920000F0B503AF2DE90007DFF84C909A461446FD
:109210000E468046DAE90001884218D000F10A01C2
:10922000CAF8001013F024FE3168054640464B464C
:109230008A1C0AF089FD2A460AF0F2FD3068013CDA
:1092400002303060601CE5D10024002000E00120E5
:109250002146BDE80007F0BDD8FF0300F0B503AF1D
:109260002DE900078046D3E9000A99460E461446C8
:10927000504511D000F10A0522463346C9F8005086
:10928000C6E90005D8E90001FFF7BAFF01280A4640
:109290002846ECD0002000E001202146BDE8000770
:1092A000F0BDF0B503AF2DE90007D2E9004A9146C1
:1092B0000D468046264654450BD006F10A0440462A
:1092C0002946C9F80040C5E90064FFF7BBFE002845
:1092D000F0D0B6EB0A0018BF0120BDE80007F0BDD2
:1092E000016820293CBF0430704780B56F46024AB0
:1092F00008461F210CF044F8B8F00300F0B503AFA6
:109300004DF804BD88B007293BD8214E06F58F647F
:1093100054F821509D4202D9012101802EE006F52A
:10932000DB6300931B4BB446019303F17806079669
:1093300003F16406069603F15006059603F13C0618
:10934000049603F12806143302936B46039653F8F0
:1093500021301A600CF584725D60002342F82130E0
:1093600001234CF8213052F82130DB07FBD00023D9
:1093700042F8213044F821304560037008B014F001
:10938000D7BD024A084614F069FE00BFD8F00300BA
:109390002870024014770240F0B503AF4DF804BDC9
:1093A00098B0412A3DD21546044632B1B1F1005F72
:1093B00005D34819B0F1405F01D20E4604E06E4675
:1093C0002A46304615F023F81D48109000F18C0114
:1093D000179100F17801169100F16401159100F1E7
:1093E0005001149100F13C01139100F12801143057
:1093F000072C129111901DD810A81349002250F883
:1094000024000660456001F5827040F824200122A6
:1094100041F8242050F824100029FBD018B014F093
:1094200087BD0DF0C5F805480DF022F80DF0E6F8FF
:109430000DF02EF8034A204614F010FE1C00000028
:1094400000760240E8F0030004700240F0B503AF7C
:109450002DE9800F8146407A0D46DFE810F00500C7
:1094600036013F0147002B0099F80810D9F8040095
:10947000C9F80000DFE801F003BF56655100022182
:1094800080F8B7100021D9F8000080F8B810D9F89A
:10949000000080F8B910D9F8000080F8B61014F078
:1094A00051FC002D00F0B580F4E8020109698847FD
:1094B000083DF6E799F81000002840F009818C4833
:1094C0000021C0F80015012089F81000D9F800002B
:1094D00080F8B71014F036FC002D00F0E280F4E8BC
:1094E0000201CA6800219047083DF5E7C84618F810
:1094F000180FDFE800F003F0F34D0600D9F80C0078
:1095000026E04E4616F8240F002800F0A38003281A
:1095100000F0A48073480CF0A1FE00217430C9E96A
:109520000301CCE7002180F8B81014F00BFC002DEB
:1095300000F0B780F4E80201CA6900219047083DB5
:10954000F5E70021C84608F8181F743048F80C0CDD
:1095500067490322C9E9040149F275316548016090
:10956000C0F814210160026802B90160C0224261A2
:1095700001600121D9F81400C0F800154FF48001F2
:10958000D9F81400C0F80413D9F81400C9F81C0065
:109590005948D5E9001238300DF056FBD9F81C00B7
:1095A000D0F80004000501D4032082E0D9F81400AB
:1095B0004FF40061C0F800144E48016811B949F237
:1095C00075310160002149F2753241614E460260F9
:1095D0000260C0F814110260802248480260D9F885
:1095E0001400474AC0F8042306F8241F56F8140C48
:1095F00046F8080C30E0012180F8B81014F0A2FB06
:10960000002D4ED0F4E80201CA6901219047083DBF
:10961000F6E7D9F800004FF00008002500F1100B24
:10962000016A0BEB410AD3453BD08BF80080D9F897
:10963000000000F12404406EC6003EB1F4E80201CF
:1096400000224B6A29469847083EF6E701350BF1A0
:10965000020BE8E7D9F81C00C9F820002648D5E934
:10966000001230300DF0F0FAD9F82000006841788F
:10967000D1B1D9F81410012089F82400C1F80405EB
:1096800089F818000221D9F8000080F8B71014F00A
:1096900059FB35B1F4E80201CA6801219047083D41
:1096A000F7E70020012108E0007858B1032030706E
:1096B000042088F800000120032189F80910BDE882
:1096C000080FF0BD01203070DAE708480CF0C6FD45
:1096D00003480CF0C3FD04480CF0C0FDFEDE00BFE3
:1096E00098070400A8F0030088070400FCF10300B9
:1096F0000070024000EC0640949C022004E100E06F
:1097000001004001F0B503AF2DE9000F89B080469C
:1097100091F88500D3E900B99A4615460E4601280E
:109720001AD10021D6F8EC008DF821104FF44071C9
:10973000CDF81D100B218DF81C0007AA304606231A
:109740000DF04CFCD6E905100538884280F0E28027
:1097500031690A5C01320A54D6F8EC40082C80F0DA
:10976000B98006F1DC00002120F81410D6F8EC10C6
:109770000131C6F8EC10A14240F2B58000EB440084
:109780004178013141703068002800F0B080706885
:109790007169CDF810B0884280F0B2803169B26949
:1097A000CDF80C800B5C8DF81C4001330B54111D5F
:1097B00001200723C6E902010020ADF821004FF483
:1097C0004030CDF81D0007AA304604210DF006FCFC
:1097D00022204FEA192B8DF8200021215848072319
:1097E000079030468DF82190CDF804908DF822B086
:1097F00007AA0DF0F3FB06F194009AF81290CDF849
:1098000008A0BAF810800DF071F800287BD1032071
:10981000D7F808A007F8260C41F08000A7F12A012C
:1098200007F8280C304607F8279C27F82A8C0DF0FB
:1098300019FCBAF1000F16D006F196000DF056F89B
:1098400000286AD14FF0030A8DF81F908DF820A0F0
:109850003046ADF81C808DF81E1007A90DF002FCF3
:10986000DDF81C8001E04FF0040A06F1500206F119
:10987000480307CA0DF0F8FC2220019AE8764FF45D
:109880008070A5F819003448C5F815000298049BAB
:10989000D0E902012A77C5E90032304A2C7505F17A
:1098A0002004C5E9024030462961294685F81DB0EB
:1098B00000F064F8039957F82A0C086037F8260C72
:1098C00081F80AA0C1F80680CC60888009B0BDE8A4
:1098D000000FF0BD0CF06CFE15480CF0C9FD08201F
:1098E0000CF09AFD08E0134A20460BF09EFB0CF0AA
:1098F0005FFE11480CF0BCFD0CF080FE0CF0C8FDC2
:109900000E4A0BF092FB0F48A7F11D0200901821A0
:109910000D4808E0054A0BF088FB0D48A7F11D0231
:10992000009019210B48094B0CF022FB44F5030071
:109930002900000054F5030030000000BC150400AD
:10994000100100017CF5030064F503009406040097
:10995000A8F503008CF5030009211001ACF4030005
:109960007047002101607047002070470020704759
:10997000022070477047704770477047D0F8D83062
:10998000082B3FBF00EBC303C3E92612D0F8D81061
:1099900001313CBFC0F8D810704780B56F460CF05D
:1099A00007FE05480CF064FD08200CF035FD0CF0B6
:1099B00025FE0CF06DFD00BF28000000D0B502AF01
:1099C00086B0044624300122D0E84F3F53B9C0E8A6
:1099D000432F002BF8D12046242214F03BFB2046D5
:1099E00006B0D0BD14F033FA03490091034914F0D6
:1099F000E9F968460BF0AFFBF4F503005CF60300F1
:109A0000D0B502AF86B0044680300122D0E84F3F87
:109A100053B9C0E8432F002BF8D12046802214F020
:109A200019FB204606B0D0BD14F011FA034900918D
:109A3000034914F0C7F968460BF08DFBF4F50300F9
:109A40005CF60300D0B502AF86B0044600F5807026
:109A50000122D0E84F3F5BB9C0E8432F002BF8D17B
:109A600020464FF4807214F0F5FA204606B0D0BDBF
:109A700014F0EDF903490091034914F0A3F9684685
:109A80000BF069FBF4F503005CF60300FEB506AFCE
:109A90000121D0E84F2F42B9C0E8421F002AF8D177
:109AA0000130BFF35F8F06B080BD14F0D0F90449D8
:109AB0000091044914F086F968460BF04CFB00BF96
:109AC000F4F503005CF60300B0B502AF14F03EFB02
:109AD0000446D5E90021A8680223012A2B6004BFAF
:109AE000496888472046BDE8B0400DF045BCD4D455
:109AF000F0B503AF4DF8048D14F028FB1F4E8046DF
:109B0000306878BB4FF0FF30306096F87C0030B1A1
:109B1000E8B2C5F30F24022815D0002019E0B06F79
:109B2000290C00EB4000304481758582D6E91D0187
:109B30000131B1F1200218BF0A469042B26702D14A
:109B4000012086F87C00301D0DF0CAF8306802252F
:109B50000130306014F0FDF9E8B240EA04205DF80D
:109B6000048BF0BD0CF024FD05480CF081FC0EF0D8
:109B700053FC0CF043FD0CF08BFC00BF80930220E3
:109B80008C00000080B56F4609037D2241EA105128
:109B900000037C30002315F032F8BDE880400DF062
:109BA000DFB8D4D400F01F020123C0B203FA02F2DE
:109BB000074B29B1202828BF03F540731A6070476E
:109BC0004FF44171202838BF04215A50704700BF1C
:109BD0000805005080B56F460CF0EAFC03480CF015
:109BE00047FC0CF00BFD0CF053FC00BF68000000BC
:109BF000F0B503AF2DE9F00BA7F11D05804628460F
:109C00000DF07AFF1A4C0026284607210122CDE9E3
:109C100000664FF00109A04703200421CDE90006AA
:109C200028460322A047284601210122CDE90066EB
:109C3000A047284600210122CDE90096A047EE1C4E
:109C4000304602F0BDFD304602F0B0FD0435284636
:109C500002F0B6FD284602F0A9FD17F8190C88F8A5
:109C6000040057F81D0CC8F80000BDE80F0BF0BD4C
:109C7000D5C7020080B56F460CF09AFC03480CF083
:109C8000F7FB0CF0BBFC0CF003FC00BF690000000C
:109C900000210180704700207047D4D4B0B502AFD6
:109CA00086B00D460F490968C9050BD11049144605
:109CB00009F0E0FF02685AB9C0E9005414F02FFB24
:109CC00006B0B0BD14F01DFA07490091074904E041
:109CD00014F017FA07490091074914F073F8684621
:109CE0000BF039FA04ED00E0C41704003C1804003E
:109CF0000CF7030044F703004CF70300F0B503AF83
:109D00002DE9000F95B00C461168002900F0A481E0
:109D10002188112906D180681546FFF7D5FE00205D
:109D200028604EE1A688D0F8008030460DF05CFE39
:109D3000C00700F0968120880D4607F8591C50286E
:109D400031D0512816D0522840F0378130460DF0DE
:109D50004BFEC00700F0318108460C468DF83810E4
:109D60000DF07CFE002843D0CA6B0EA990479DF8E9
:109D700038404FE0A079022840F08381A07B0EF0AC
:109D8000B9F9C0B2002840F089810CF011FCCD482F
:109D90000CF06EFBA07B0DF05BFB0CF02FFC28465B
:109DA00009F076FE0DE1207B0EF0A4F9C0B270B18F
:109DB000D8F8009004F112000490B4F806A0B4F8AA
:109DC00010B0B9F8140050450CD1002432E00CF06A
:109DD000EFFBCE480CF04CFB207B0DF039FB0CF078
:109DE0000DFCEAE0B9F81E00504517D1012421E02E
:109DF000204600210EF0E8F902280BD0054614F0A9
:109E000000F9C3480CF034FB2846314612F098FAAA
:109E10000CF0F4FB20460DF06FFDCEE0B9F8240005
:109E2000504501D1022405E0B9F82A00504540F020
:109E3000CB8003240CF0BCFBAB480CF019FBAB4807
:109E40000CF0F8FAAA4850F8240000780CF007FB50
:109E500050460DF0B3FC049859460DF039FA0CF059
:109E6000CDFB13F0E0FFB9F80A0050451CD1BBF15F
:109E7000000F19D0049C94F800800CF099FB9D48C9
:109E80000CF0F6FA50460DF099FC204659460DF0BC
:109E90001FFA99480CF0CEFA08F001000CF0DDFA38
:109EA0000CF0ACFB13F0BFFFB9F83010514510D1E6
:109EB0000CF07EFB94480CF0DBFA50460DF07EFC73
:109EC000049859460DF004FA0CF098FB13F0ABFF20
:109ED00073E0B9F8340050456FD1CDF80C90DFF83D
:109EE0001C92884C8DE8020C0EAD13AE4FF0000AA8
:109EF0004FF0000BBBF1030F58D006A804992022A5
:109F000014F085FA0DF014FA8046D9F80000002804
:109F100040F0AF804FF0FF30C9F8000099F89C0086
:109F200018B34046C9F800A00DF026FA4FF424708B
:109F300014F00FF9CDE90E0171488DF840A0CDF86D
:109F400050A01390284631460CF014FF0028F9D198
:109F5000DDE91310C96888470CF02AFB14F0F3F808
:109F60000BF1010B0CF04AFBC4E7D9F8980006A9E5
:109F7000202209EB4010143014F049FAD9E92501E8
:109F800001310A1F18BF0A46C9F89820904204BF41
:109F9000012089F89C0009F104000CF0A1FED9F819
:109FA00000000130C9F8000013F0D3FFDDE9000A1A
:109FB0005045DDE902B93FF47BAF17F8590C0DF0BD
:109FC0009BFC15B013F094BFB9F8180050457FF40E
:109FD0004AAFBBF1000F6DD0049804780CF0E8FA9A
:109FE0003B480CF045FADFF8EC800326029420464B
:109FF00012F098F90CF002FB002E3FF434AF5D46EE
:10A000000396CB460DF094F90646D8F8200080BBA5
:10A010004FF0FF300299C8F8200008F12400002218
:10A020000EF00CFA8146D8F820000C460130C8F832
:10A03000200014F041F9039E5FEAC970D946AB468F
:10A040003FF411AF0CF0B4FA24480CF011FA244894
:10A050000CF0F0F9013ECAE72E4828212E4A0BF0F9
:10A06000AEF90CF0A5FA15480CF002FA0CF038FB2A
:10A070001CE00CF09DFA18480CF0FAF90EF0CCF93F
:10A0800014E0012806D1284609F07EFD0CF090FA74
:10A090000D4809E00CF08CFA0C4805E0284609F060
:10A0A00089FB0CF085FA06480CF0E2F90CF0A6FAF0
:10A0B0000CF0EEF90B4A14F008F800BF7500000030
:10A0C00073000000780000007200000079000000BA
:10A0D000A9000000109D02208C000000AA000000D2
:10A0E00094000000CC240400B1000000AB0000008C
:10A0F000D02D0400B20000000B000000D48E02201E
:10A10000FC1D0400B5000000B30000007700000053
:10A110007600000080F70300A8F70300F0B503AF56
:10A120002DE9F80F0E889146D0F800A00546102EB4
:10A130000DD000201B2E34D0262E32D00CF038FA51
:10A1400045480CF095F930460DF06CFB76E08888B8
:10A150000C460290C87B6E680DF02EFDD4F80B30D3
:10A160008646A268CDF80F3003923268D4E904C164
:10A170000024D2E900060022DFF8D0B0B2F5116F5A
:10A180000BD00BEB020898F869301BB998F8003037
:10A19000012B13D101347432F0E70298142176DFD9
:10A1A0000120E1B2CAE90001A868FFF78DFC002098
:10A1B000C9F8000005B0BDE8000FF0BDCDE900060C
:10A1C00076460298A8F80200012088F8000008F1FD
:10A1D0000C00C8E901C1582114F0CAFB40F201107B
:10A1E000DDF80F10A8F86800002088F86600172036
:10A1F000A8F864001B2088F871000398C8F86A006A
:10A20000029888F86760C8F86D100DF017FC0178A7
:10A2100001290ED00121DDE9003244700170E0B265
:10A2200014280FD2742110FB01B0C0E903320320BF
:10A23000B7E70CF0BDF907480CF01AF90CF0DEF99D
:10A240000CF026F9024A13F039FE00BFC4020220C6
:10A25000C81A04004B0000006F000000F0B503AF07
:10A260002DE9000FADF57B7D8246DA48CDE9040A81
:10A270000020089004A80AF5C35BCDE906009BF80E
:10A28000CE00B8B19BF8BE00002849D0032840F0AA
:10A2900091819BF85E00002840F07081DBE902604C
:10A2A000DBE9008903909BF85D0002909BF85C005D
:10A2B00001903EE1DBF8C0400CF07AF9C7480CF0A1
:10A2C000D7F80CF09BF9C649402081F82100C54918
:10A2D00081F800030DF02CF8DFF80C9399F80510C5
:10A2E000012900F05C810121039489F805100DF02B
:10A2F00043F8BE48BE4CBF4E0068C0F30720452857
:10A3000016D904F108005A214FF05A080CF002FB4C
:10A31000C0B2C6F85085B0FA80F04FEA501809E094
:10A32000DBE91A639BF8BC409BF8BD000290E7E0B4
:10A330004FF00008204612210CF0ECFA2146C4B27E
:10A34000081D0D4612210CF0E5FAC0B23CB1B0FA7E
:10A3500080F1490948EA0108022C02D103E04FF0DC
:10A360000108022806D10CF023F9A3480CF080F86C
:10A370000CF044F905F10C00002101220CF0CEFA9A
:10A38000B8F1000F40F01481C0B2002800F0108135
:10A390000020C6F81005C6F8FC0001203060D6F891
:10A3A000FC000028FBD0954C4FF0A04016900020F8
:10A3B000179416A901224FF0FF33082806D00E5833
:10A3C0000430C6F82425C6F82035F6E7854B402032
:10A3D000834E60218D4AC3F88001317018604FF0C0
:10A3E0000041874801604FF4000186488164864936
:10A3F000C1F8042301228A600A6001680029FCD1A7
:10A40000602009F12208F0724FF40030186099F8CA
:10A410002000002818BF4046BFF35F8F01D0804660
:10A420001BE00CF085FF064699F8210068B909F198
:10A4300038000CF05EFC99F82100012800F0BD8086
:10A440000120A9F8220089F821000120BFF35F8FC5
:10A4500089F8200013F030FF624B80204FF0040990
:10A46000C3F8840158600820C4F808940322C4F893
:10A470000C02032168480291684902600AAC1C2260
:10A4800013F0B9FD664904F11C0091E86C00214607
:10A4900002246CC05E46022006F8C40F41F6D000CC
:10A4A0000025504446E919852C22DDF80C80A6F8D9
:10A4B0000490B57046F85C6C46F8588C13F0A7FF12
:10A4C00040F20230502126F8080C102006F81C0C2F
:10A4D0004FF4C020142206F8065C06F80C5C4346D4
:10A4E00026F80E5C06F8105C06F8125C06F8144CB0
:10A4F00006F8164C06F8184C46E90A2146F8200CD6
:10A5000041F6700041F6D00150445144DBE918890E
:10A510004C220393CBE90089CBE9026314F0BCF928
:10A52000002001948BF85E0002988BF85D008BF898
:10A530005C4041F6700016AC0AEB000104F5527065
:10A540004C2214F0A9F9029800258AF83A00214615
:10A5500001984FF465728AF839000AF14800CAE997
:10A560001089CAE90C55CAE908558AF8385014F020
:10A5700093F903988AF8C05ACAE9F7600AF12000F3
:10A5800006A902F055F903208BF85E008BF8CE0087
:10A590008BF8BE000DF57B7DBDE8000FF0BD0CF023
:10A5A00007F820480BF064FF0CF028F80BF070FF60
:10A5B0000CF0DCF908480BF051FE01210020179146
:10A5C000134916911A90199004201249189016A850
:10A5D0000AF0C1FDA81304004401040011000000AA
:10A5E00006E400E000E100E0949C02200401001079
:10A5F000001200100800004020000000000300507E
:10A6000004630040041501400010014002000800EE
:10A61000F0220400F82204000C070050B00C0400E3
:10A62000940D04001F0000004FF4C852815000F543
:10A63000C850002181737047F8B504AF83460CF011
:10A6400077FE7B4C06462568F5B97A494FF4004CF5
:10A6500041F6301501F5004051F80C20002A08BFE2
:10A660000A4612F0070318BFC3F108031D43801AFE
:10A67000854200F2D7805019D51841F80C0041F6F8
:10A68000301113F0FAFD256013F016FE002341F699
:10A69000301040F20111834200F0B980EE181A1810
:10A6A00006F1080353E8004F24B943E80014002CD6
:10A6B000F8D103E0BFF32F8F1346ECE75E487061DB
:10A6C00006F120005946FFF7AFFF584631460CF01F
:10A6D00074F84FF0FF384FF000094FF0010A0BF10A
:10A6E00008000190CDF800B09BF80C005A46534981
:10A6F0000CF066F90CF0C0F8DDF804B006460D4623
:10A70000DBF800402CB3D4E90001301A75EB0100EE
:10A710001CD304F1080050E8001FCA050ED4CA0774
:10A720000CD041F4807140E80012002AF3D1206976
:10A73000791E029402AA0CF021F801E0BFF32F8FDA
:10A74000A069CBF8000084F80A90D9E704F1180B4F
:10A75000D6E7BFF35F8FDDF800B05BE8006F4BE832
:10A7600000900028F9D1BFF35F8F16B33546C6E9D4
:10A770000088F668287A85F809900028F5D069697C
:10A7800028468847D5E9000181EA080180EA0800E7
:10A790000843EAD005F10A00D0E84F1FC0E842AFF5
:10A7A000002AF9D10029E0D101990868A8610D605B
:10A7B000DBE74FF0FF324FF0FF33DDF804C0DCF889
:10A7C0000010D9B1D1E9004585EA080684EA0800FD
:10A7D0003043161B73EB05064FF0000638BF012609
:10A7E000002E04BF2B46224628B98869CCF8000009
:10A7F00081F80A90E3E701F1180CE0E79BF80C0000
:10A800000CF0F4F800283FF475AF20BF6CE70BF0B4
:10A81000CFFE0B480BF02CFE09F0FCFA0BF0EEFE1D
:10A820000BF036FE0BF0C4FE06480BF021FEF5E7F8
:10A8300074000220D00E02205DA20200DD6703003A
:10A840001900000093000000F0B503AF2DE90007E8
:10A85000804691F844000D46DFE800F003787B1F46
:10A860004E002A6905F12406A968D5E9009001EB9C
:10A870000234C5E9059030462021C5E9072414F0CB
:10A8800077F8354A3046012109F057FA0022C5E928
:10A89000129085F85820C5E9141405F148000AF013
:10A8A000C5F92E46552116F8240F4FF000092B4A02
:10A8B00001EA5001401A332101EA900100F033000F
:10A8C000084400EB101000F00F0005284FF00000C6
:10A8D00038BF012085F848003046012156F810ACF9
:10A8E00056F8044C09F029FA04F6FF7286F83890FD
:10A8F000C6E90AA0C6E90C1205F14C000AF096F967
:10A9000095F82400552195F8482001EA5001401A95
:10A91000332101EA900100F03300084400EB1010ED
:10A9200000F00F0122B10020042988BF012002E0BD
:10A93000042902D902200B2100E00621C0B2012225
:10A9400085F84420C8E9001013F0FABB01480BF069
:10A9500085FCFEDE84F8030074F8030094F803001D
:10A96000F0B503AF2DE9C007814691F8A9000C4668
:10A9700020B103283DD033480BF070FCD4E91836E1
:10A980004FF0010E94F8AA504FF0000884F8A85038
:10A99000F51A84F894E040F6FF7CD4F870A0D4E96E
:10A9A0002802C4E91A3638BF45462E0B2905C4F8DB
:10A9B000806004F1740181E8050418BF0EEB1536C0
:10A9C000C4E92183C4E9236C04F17C00FCF7D6FBC5
:10A9D000002220B304F1A800D4E91D3584F84420F6
:10A9E000C4E92610D4E91A02C4E90035C4E9020218
:10A9F000216168462146FFF727FF00980C2811D0F7
:10AA0000DDE900100B2912D1D4F89C10C0B20978EE
:10AA10008142D9D1D4F898000121002208E0002118
:10AA2000002005E00220C9F80000032005E0012213
:10AA3000C9F808000120C9E9002184F8A900BDE88F
:10AA40000C07F0BDA4F80300F0B503AF2DE9C00B6F
:10AA5000804691F828000C469146DFE800F0035E3E
:10AA600061103A00002004F12C0684F8700094E88C
:10AA70002F00C4E908152FC604F114060DC604F111
:10AA80002C0568462946FFF7DFFE00980C2803D105
:10AA900013F005FB03203CE0DDE900060B282ED176
:10AAA000F0B22E70022828D104F14805012084F864
:10AAB0002D00202113F0CBFA636A0020D4E905129F
:10AAC00084F84400042002EB0332C4E90C15C4E905
:10AAD0000E0204F13000494609F07AFDC6B2042E98
:10AAE00003D113F0DCFA042013E094F8440008F0DA
:10AAF00042FE032E05D194F82D600B2003E0310AAD
:10AB000001E000210420F2B242EA0121C8E900017B
:10AB1000012084F8280013F0EDBB02480BF09EFBE7
:10AB2000FEDE00BFB4F80300F0B503AF2DE9000F5F
:10AB3000CDB0814691F851008A469046DFE810F08A
:10AB400006006201920127005A008100DAE9001C28
:10AB50000020DAF84860DAE90C35DAF84C208AF897
:10AB600050008AF8BC00DAF84400CAF83800CAF885
:10AB70003C60CAE9021CCAE90435CAE91506CAE9FB
:10AB80001735CAE91921CAF86CC0CAF840200DF17E
:10AB9000080B0AF15401584601F0E0F80698042821
:10ABA00004D1092089F80000032098E001200AF16F
:10ABB000180C8AF850009BE87D0061467DC1DAF8E8
:10ABC0002820032A04BFDCF80000062804D0DAE9B4
:10ABD00006B3DAF82C0044E00AF108030020DAE9B1
:10ABE0000E548AF898000FCBCAE91554CAE9172306
:10ABF000CAE919010AF1540508A84246294600F09D
:10AC0000F5F908980C2804D1092089F800000420DF
:10AC100065E02846DDE908B608F008FE0020BBF133
:10AC20000B0F41D10AF138060AF108038AF8BC007B
:10AC300070CE0FCBCAE915450AF15C044CC4CAE9D1
:10AC40001A010AF1540108A801F088F80C9A042AA4
:10AC500004D1092089F80000052040E0DDE908B3AF
:10AC60000D980021022A8AF8501005D0032A05D138
:10AC7000180CC3EA004619E0072018E0DAF81410AF
:10AC80009BB21AB99942C0F0C78004208142C0F03B
:10AC9000BC801E1A091A8E4200F2BA80834223D168
:10ACA00000264FF0020B01E08AF85000082089F8D6
:10ACB000000009F11000A9F8025089F80180C9E9E3
:10ACC00001B6C9F80C404AA90CC90CC0EA2209888F
:10ACD000018009F11A000FA913F099FB01208AF8ED
:10ACE00051004DB013F004B9DAF810100D1828789F
:10ACF000062807D8DFE800F02C04043720405F0066
:10AD0000002660E0EF285DD1782E40F28980D5F8EA
:10AD100001B005F10D01D5F805600A22D5F809400A
:10AD20004AA813F074FB05F117010FA8622213F073
:10AD30006EFB310A05203DE0012E74D0052E7DD931
:10AD4000D5F8020000216E7890FA80FB012055E0D2
:10AD5000012E6AD06878B0F1010818BF4FF00108E1
:10AD6000002000214AE0022E63D9B5F8010000213D
:10AD700000BA050C022041E0022E5CD9B5F80100B2
:10AD80000DF1200800BA010C404612F0F7F8032E2E
:10AD900059D0042E5CD0052E5FD9EC782E7995F829
:10ADA00005B04AA8B8E8060006C0B8F8001001804F
:10ADB0000021032022E0B6F5807F07D800264FF05F
:10ADC000010B73E701264FF0030B6FE72E46D5F812
:10ADD00004B0B06806F11001EC680A226D8896F89C
:10ADE000018001904AA813F012FB06F11A01019E9E
:10ADF0000FA8E72213F00BFB310A0420F2B242EA5B
:10AE0000012654E718480BF029FA224A0AF0EEF816
:10AE10001F4A30460AF0B4FA1F4A18460AF0B0FA40
:10AE2000124A79200CE0174A00E0184A012013F07A
:10AE300097F8154A00E0114A032001E0104A062065
:10AE400031460AF09DFA0C4A032003210AF0EDF87E
:10AE5000084A042004210AF0E8F8054A05200521E3
:10AE60000AF0E3F8FEDE00BFD4F80300440C04004F
:10AE7000340C0400240C0400140C0400040C040022
:10AE8000F40B0400E40B0400D40B0400C40B040016
:10AE900004F90300F4F80300E4F80300F0B503AF8D
:10AEA0002DE9C007804691F849000C469146DFE83D
:10AEB00000F0039598234C740020E66B84F848005A
:10AEC00084F8B5004848A067A06BD4E900C2D4E973
:10AED0000835216CA062C4E92A06606CE662C4E908
:10AEE00002C2C4E904352163C4F8B0106067C4E944
:10AEF0001B35C4E913C2606304F14C0568464A4639
:10AF0000294600F04DFB00980C2803D113F0C7F838
:10AF100003205EE0DDE90001C4E90601012084F8B8
:10AF20004800284608F0A6FCA069062849D104F18B
:10AF300008030020D4E90A6584F890000FCBC4E927
:10AF40001365C4E91523C4E9170104F14C056846EB
:10AF50004A46294600F04AF800980C2803D113F01D
:10AF60009EF8042035E02846DDE9006A08F05EFC22
:10AF70000B2E28D104F1280504F1A80600202ECDBF
:10AF800084F8B5000EC604F1080617484ECEC4E991
:10AF90001B36C4E91D50C4E9131204F14C05684680
:10AFA0004A46294600F0FCFA00980C2803D113F019
:10AFB00076F805200DE02846DDE9006A08F05AFC25
:10AFC00001E0D4E9066A0020C8E9006A84F8480074
:10AFD000012084F84900BDE80C07F0BD01480BF0E2
:10AFE0003DF9FEDE24F9030014F90300F0B503AFC8
:10AFF0002DE9F80F824691F844000C469146DFE8AF
:10B0000010F009004D0053002300B700E9000601CD
:10B0100025014D01CDF804A0A246D4F800E04AF87D
:10B0200048EFAAF144065AE90E23D3460AF1040078
:10B0300062CE4AE9085600250BF8405F0EC04AE987
:10B040000CE24AE90A310FE0A346CDF804A01BF850
:10B05000880FABF1400ADFE800F00324273C5600DC
:10B06000D4E912E1D4E9142340F6FF764FF0010C45
:10B07000E66700269D1A84F880C038BF3546280B45
:10B08000C4E918312905C4E916E2C4E91A60C4E923
:10B090001C6218BF0CEB1530A06706E090480BF05F
:10B0A000DDF88E480BF0DAF8FEDE04F16800FCF7FC
:10B0B00065F8002840D004F15805002084F8D0003D
:10B0C0002DCDC4F88410C4E92305C4E92523C4F8B0
:10B0D0009C1004F18C0102A8FFF7B6FB0298062829
:10B0E00003D00C28E1D1032058E004F158050020DA
:10B0F00084F8CC002ECDD4F88400C4E92315C4E92B
:10B100002523C4F89C0004F18C0502A84A46294670
:10B1100001F00EFB02980C283FD02846DDE902869C
:10B1200008F031FBB8F10B0FBFD00120B8F10C0FC4
:10B130008BF8000005D133E001204FF00B088BF8AD
:10B140000000504608F051FBDDF804A0B8F10B0FE9
:10B1500040F0BC804FF4807004F11803A4F8F100B3
:10B160000020C4F8B8000FCBC4E93A03C4E92A129E
:10B1700004F1480102A8FFF7F3FB0298022803D16B
:10B1800013F0D5F80420A4E0DDE90386C0070BD056
:10B190000120A663C4E90C0898E004208BF80000A5
:10B1A00013F0B9F8032094E00025A6635FEAC870A5
:10B1B000C4E90C5800F08880D4E907013246E66300
:10B1C00001F0A4FA84F88C5004F1180520642ECD07
:10B1D00012F008FF04F1480102A8FFF735FB0298BE
:10B1E0000C2803D113F0A3F8052072E0DDE90286F4
:10B1F000B8F10B0F6AD1F0B2022865D004F118053E
:10B20000002084F888002ECDE06B12F0EBFE04F1F4
:10B21000480502A84A46294601F08AFA02980C28F5
:10B2200003D113F084F8062053E02846DDE90286B6
:10B2300008F0A9FAB8F10B0F48D104F11805002065
:10B2400084F870002ECDE06B12F0CCFE04F14805BE
:10B2500002A84A462946FFF7F7FB02980C2803D1BB
:10B2600013F065F8072034E02846DDE9028608F08F
:10B27000B3FAB8F10B0F29D104F11806002084F8B5
:10B28000C8006CCED4E90A01D4E90FCEC4E9122675
:10B2900004F15002A2E82B40C4F864C004F1480550
:10B2A00002A84A46294600F01DF802980C2803D14E
:10B2B00013F03DF808200CE02846DDE9028608F08E
:10B2C000CCFAB8F10B0F01D14FF00B08CAE9008698
:10B2D000012084F8440005B012F00ABEC4F803004F
:10B2E00034F90300F0B503AF2DE9000F8FB00190E2
:10B2F0000C4691F8800093460292DFE810F00700B8
:10B3000038003B004900980022002601D4E903855B
:10B31000E269D4E905A1281D05EB013300EB0136F4
:10B3200000EB023003F6FC7394E8005204F12802AB
:10B33000C4E91063C4E9089582E80054C4E90D81AA
:10B3400019E094F82C0104F1840A04F5967528B1EB
:10B35000032800F0B7808F480AF080FFCDE9035A38
:10B36000D4E9216BD4E923A5D4E9259894E08A484F
:10B370000AF074FFFEDEE0630020D4E90C1284F8CA
:10B38000A40004F14003206AC4E92312C4E9213077
:10B3900008AD04F18401284601F092F8DDF820C0E0
:10B3A000BCF1020F00F0B58005F10C02DDE909984F
:10B3B00005A992E861000B4661C35FEACC70C4E95D
:10B3C000139840F0B08091E82C0004F154002CC098
:10B3D0000020B9F1000FA06400F0AB80204640F8D7
:10B3E000609FA0F11002031D50F804CC92E86200A7
:10B3F00062C3C0F810C012F047FC4FF000090429E6
:10B40000C0F0BC800068214641F8740F51E9052066
:10B4100051E9153C51E9136581F87890C1E90120A3
:10B42000C1E90435C1E90620C1E9081C8E6204F1B6
:10B43000840608A8314600F091FC0C98042864D0DA
:10B44000022873D0DDE90898032800F09980DDE92F
:10B450000A05D4E91E12514B0CF09AFC04F59872BF
:10B46000A4F83C8182E80302206F854284D1D4F89D
:10B470003C800020D4E908B5D4E90A9A049604F582
:10B48000987684F82C0104F59670C4E9216BC4E920
:10B4900023A5C4E925980390304612F0F5FB00225D
:10B4A000C4E927BA84F8E02006F10802C4E929209B
:10B4B00004F1AC0080E82202DDF810A0DDE902B55D
:10B4C000C4F8B88004F19C0608A85A46314600F03A
:10B4D00013FF08980C2820D03046DDE9089808F0C2
:10B4E00094F90120B9F10C0F287018D0504608F0DB
:10B4F0006BF9B9F10B0F43D1B4F83C11E06B033198
:10B5000021F003010844083035E712F004FF04205D
:10B510003AE012F000FF032036E00320287012F01A
:10B52000FAFE052030E00120A06429E04FF0060972
:10B5300023E004F1200584F8C400A06B2ECDC4E9FB
:10B540002115C4E92323C4F8940004F1840608A853
:10B550005A46314601F0ECF808980C2803D112F055
:10B56000DAFE062010E03046DDE9089808F00BF915
:10B57000B9F10B0F04D14FF00B0901E04FF00408B3
:10B580000198C0E90098012084F880000FB012F003
:10B59000AFBC00BFE8FA030044F90300342D0400F7
:10B5A000F0B503AF2DE9000FB9B00490884691F8CB
:10B5B000690093460592DFE810F00E00D100EB0021
:10B5C00015013D0148003B005D00E6020203210336
:10B5D0004503B701D30108F15C04D8E9000108F183
:10B5E000200E08F130091CCC9EE86050A9E81C0030
:10B5F00008F1080282E8635002466FF31F32002A06
:10B60000069240F0AF800A466FF31F320792002A7D
:10B6100040F0AE800A1A4FF00009B9EB523F40F0FB
:10B62000B880DFF824075121DFF8202709F0C7FE92
:10B6300098F8200108F16C0A08F5907458B30328B3
:10B6400053D0DFF8EC060AF009FE444614F8F80F70
:10B65000002869D0032840F09380C2461AF8F40FFE
:10B66000002800F07880032800F0B481DFF8C406D9
:10B670000AF0F4FD444614F8940FA4F1280ADFE818
:10B6800010F005008300870002022F02D8E91CB5E4
:10B69000D8E91E69E6E1D8F87000A146D8E91DB6E0
:10B6A000D8F884500190D8F87C000390D8F8800036
:10B6B000029058463146D8F86C4012F013FB4146D0
:10B6C00041F8880F002001F10C0281F84C0001982C
:10B6D0008C604C4682E80308DDF814B00398C8611A
:10B6E00002988E808E61C1E9080508F190052EA8A8
:10B6F0005A46294600F000FE2E980C2806D10499DF
:10B70000032020700C2008600620B8E22846DDE9FE
:10B710002EB908F07AF8BBF10B0F0CD1B8F88C9069
:10B720000025D8F8886009E0D8F86C00D8E91FC374
:10B73000D8F88410DBE04FEA19455E4601202070FE
:10B74000504608F05AF8BBF10B0F01D10B2692E2DC
:10B75000C9EA05458FE2D8E92620D4E0DFF8DC0508
:10B760000AF07CFD0020DFF8D825089006A804E048
:10B770000020DFF8D025089007A808A908F00CFBE6
:10B78000DFF8B4050AF06AFDDFF8A0050AF066FDEF
:10B79000FEDE081AC8F83C904FF0000538BF284676
:10B7A000040B01212646020518BF01EB1036AE42FC
:10B7B00006D0002021462A4600F09AFF0135F6E720
:10B7C000B14500F0DC804FF48070D8E90C23A8F874
:10B7D00015010020C8F8DC00D8E90201C8E94323BC
:10B7E000C8E9330108F16C0108A8FFF7B9F8089817
:10B7F000022800F0CA80DDE90965C00740F0D0806A
:10B800000024C8F84850F007C8E910467ED0D8E9AF
:10B81000026A2A465146C8F84C50D8E90C9B30467B
:10B8200000F074FF88F8B040C8E91B9BC8E91D6AA6
:10B83000C8F87C0008F16C0108A8FFF705F8089823
:10B840000C2800F09E80DDE908650B2E40F0138285
:10B85000E8B2022840F00E82D8F81420042AC0F082
:10B86000A580D8F810100420DFF8E434D8F84C4054
:10B87000D8F808A0D8F838500CF08AFA042940F01B
:10B88000988029680160D8F81410032940F2968046
:10B89000D8E906520B1FD8F81000D668021D08A878
:10B8A0002946B047DDE90865042E40F0E481291DF2
:10B8B0000020C8F85010B0EB114F5ED1B1F57F6F8A
:10B8C0005BD80AEB0430444600F6FC7300F1040C2C
:10B8D000002004F8F80F54E9320554E93C2644E905
:10B8E0002305A4F1840585E8441044E91E3142464D
:10B8F00042F890CF42E9023100219246C2E901327A
:10B90000D0600AF8641FC8E928205BE04FF400709B
:10B91000D8E90C23A8F81501D8E90201C8F8DC40E1
:10B92000C8E94323C8E9330108F16C0108A8FFF70F
:10B9300017F8089802282CD0DDE90965C00740F007
:10B940009A81F00700F096810020D8E90C2388F84E
:10B950009400D8E90201C8E91B2308F1740223C24C
:10B9600008F16C0A08A85A465146FFF76DF8089886
:10B970000C2811D012F031FC73E10A267BE1052678
:10B9800079E112F058FB042079E112F054FB032016
:10B9900075E112F050FB72E112F04DFB0D206EE1EB
:10B9A0000120C8F84850C8E9100664E104250026C3
:10B9B00061E1E74A084604210AF01DFCE64A04203A
:10B9C00009F014FB0023D2E9001288F8F03008F1E6
:10B9D000A80307C308F1A80108A800F0B1FB089864
:10B9E000032800F0558178B10A9D012840F0948029
:10B9F000D8F8A010032010FA85F020F003000A68A0
:10BA000010440830086090E0404650F8882F816963
:10BA10000D68012180F86C10521B082A07D322F010
:10BA20000302D8F88C30083A9A4280F05381D8F853
:10BA30003000C2464AF86C0F00205AE919568F228E
:10BA40005AF8209C54465AF838BC04F8280F0AF1DA
:10BA5000290088F8F810CAE901B5CAE9036908A9FC
:10BA600012F0D5FC002008F1A00188F8C000D8F839
:10BA70006C0081E8600208F18001C8E9260B81E8CA
:10BA80006108C8F8909008F1980B2EA8059A5946BD
:10BA9000FEF7DAFF2E980C2800F009815846DDE900
:10BAA0002E6507F099FE0B2E2FD1E8B20B26012848
:10BAB0008BF800503CD108F1B405202112F0C7FAF0
:10BAC000D8F890300020D8E9201288F8B00004207F
:10BAD00002EB0332C8E9271502F6FC72C8E9290215
:10BAE000DDF814B008F19C00594608F071FDC5B2AC
:10BAF000042D00F0DA8098F8B00007F03CFE0B2629
:10BB0000032D00D116E0042614E0DDF814B0012066
:10BB10000C2E207010D1CCE0099E062E40F0D5806E
:10BB2000D8F8A000016808310160D8E9282049E769
:10BB3000DDF814B001202070504607F02DFE0B2ECA
:10BB400040F09980D8E90201D8F84C2000F0DEFDE1
:10BB5000D8E90212D8E90C34C8E91D123022C8F81D
:10BB60005400C8F87C0008F18000C8E91B3408A91B
:10BB700012F04DFC00201B2288F8B00008F1B10043
:10BB80002EA912F044FC08F16C0136A8FEF75CFE09
:10BB900036980C2878D0DDE936650B2E6BD1E8B2EB
:10BBA00088F86850022865D10020D8E90212D8E947
:10BBB0000C3488F89400D8F8540012F050FB08F1C7
:10BBC0006C0A08A85A465146FEF73EFF08980C2812
:10BBD00077D012F002FB0B2E4DD1D8E90201D8F834
:10BBE000542000F093FD0021D8E90C3488F8B010FF
:10BBF000D8E90212C8F8580012F031FB08F16C0ABB
:10BC000008A85146FEF720FE08980C2855D0DDE91B
:10BC100008650B2E2FD1E8B28AF80050022822D0F6
:10BC2000D8E915C108F1080500203CCD88F8F000DE
:10BC3000D8E90C06C8E91C06C8E91E45C8E9202356
:10BC4000C8E9221C08F1700A08A85A465146FFF7B5
:10BC500049FB08980C2824D05046DDE9086507F018
:10BC6000FCFD0B2E07D1D8F83C20D8E9020102F1E7
:10BC700001098EE506260498C0E90065012088F8D0
:10BC8000690039B012F034B912F0D5F90820F6E79E
:10BC90000499032020708AF800000C200860052019
:10BCA000EDE712F0C8F90B20E9E7042000E00320DB
:10BCB000207012F0C0F90720E1E712F0BCF90A2069
:10BCC000DDE712F0B8F90920D9E7012020708AF8E1
:10BCD0000000D0E788F8F810D8F81410D8F85060B1
:10BCE0008E421FD8D8F83010C2464AF86C1FAAF10D
:10BCF000640B5AF8383C9BE806080193CAE9013BFB
:10BD0000CAF80C600391CAF810100292CAE905251E
:10BD100008A9982212F07EFE00200AF1B4098AF8E0
:10BD2000B400C6E40B4A304609F02AFB64F803006D
:10BD3000F8FA0300C8FA0300D8FA0300D8F90300A0
:10BD4000C8F90300B8F9030054F90300A8F9030087
:10BD5000BC2D0400F8F90300E8F90300F0B503AFC7
:10BD60002DE9FF0B804691F868000C4604F16C0940
:10BD7000DFE810F00C00CB00E1004D0077002E0052
:10BD80004400A2000B0145016E019D01D4E90501AB
:10BD900094E82C50C4E9072004F1240282E82A50D8
:10BDA00002466FF31F32002A009240F0B1800A462B
:10BDB0006FF31F320192002A40F0B180081A00216F
:10BDC000B1EB503F00F0B2804FF4807012F049F8B0
:10BDD00002A84946FEF7C4FD029A022A01D10520B5
:10BDE000AAE0DDE90310D20740F07481C4E9101025
:10BDF000C90777D14FF4007012F033F802A8494612
:10BE0000FEF7AEFD029A022A0AD1062094E002A8AB
:10BE1000494600F095F9029A032A0AD103208BE0E3
:10BE2000DDE90310D2072CD001226067C4E91B2191
:10BE300050E1002AC8D0DDE90310012A40F04A8110
:10BE40000022E56984F8B020D4E90E32A4F87C0021
:10BE500004F16C00D4E90BCEC4E9203280E8205014
:10BE6000A16702A8494600F0C7F90299042903D145
:10BE70000423102104206CE00498032936D103998F
:10BE800028E100226067C4E91B21C9073AD0D4E940
:10BE900007C3D4E9095E84F8C020E91A38BF114607
:10BEA000002808BF080B04F178010138C4E92135E6
:10BEB00081E80150C4F88C0004F17C0102A8FEF76F
:10BEC000C3FC02980C2801D1072035E0DDE90210FF
:10BED0000B2940F0FF80000640F0A380A06F0121F5
:10BEE000C4E9101000214C22A06439E00229FFF4BB
:10BEF0006BAFBDF81850844605990022D4F838E09D
:10BF00002846F0E006210322EDE086480AF0A6F973
:10BF10000020854A029002A9684607F03DFF0020F4
:10BF2000824A029001A802A907F036FF80485121F9
:10BF3000804A09F044FAFEDE0423102109E0C0EA39
:10BF40000640C8E902CEC8F81020C8E90010012058
:10BF5000142148F8013084F8680008B012F0B6B92E
:10BF6000A150216A01EB003000F6FC710430C4E9F5
:10BF700016010020D4E90B1284F88C0004F1580358
:10BF8000E069C4E91D12C4E91B3002A8494600F06B
:10BF900097FA029A022A49D0DDE90310D20740F04D
:10BFA0009980A9B105ADCDE902102CCDCDE90423CE
:10BFB00002A811F069FE04293AD3616B0068096890
:10BFC0008842D6D104200121C4E913156065D0E769
:10BFD000E06C80BB04F11C05002084F8B4002ECD79
:10BFE0009E1A38BF0646A06C002808BF300B0138E7
:10BFF00004F16C0623C6C4E91E23C4F8800004F1D2
:10C00000700102A8FEF720FC02980C280CD0DDE994
:10C0100002100B295ED1000603D1E16E48220846CA
:10C020009EE7002002226CE0092085E7082083E7D4
:10C03000042000214EE0D4E91423002084F8B40049
:10C040004FF0FF30E169C4E91823C4E91B126067AF
:10C0500002A8494600F074F8029A032A01D10A2086
:10C060006AE7DDE90310022A05D10222C4F8800044
:10C07000C4E91E212EE0C4E91E21D207C4F88000C5
:10C0800038D00022E369C4E91B214FF0FF3C84F85B
:10C09000C820226EA4F87400A4F8940004F184006F
:10C0A000D4E90B56C4E9262C68C0C4F8901004F1FA
:10C0B000840102A800F0A0F8029A042A01D10B2002
:10C0C0003AE7DDE9035C0621DDE90506DFE802F079
:10C0D000021D050C060C032231E7A5B10146D4E987
:10C0E00018E3012230462AE74FEA1C46032229467C
:10C0F000604624E70020062101226067C4E91B2175
:10C10000032200261BE76146E4E70121002003919A
:10C11000094902910690059004200849049002A85C
:10C1200009F019F838FA030028FA030018FA030096
:10C1300054F9030008FA030084FB03008CFB03009E
:10C14000F0B503AF2DE90007044691F848000D460D
:10C1500020B103281ED025480AF080F805F10C060E
:10C160002021D5E900983046D5F808A012F000FC4F
:10C170001F4A3046082107F0E0FD01EB08030022CA
:10C18000C5E90B01534525D885F84420C5E90D9034
:10C19000C5E90F1805F1340008F048FDD5E90B6139
:10C1A0000020814215D0325C0130FF2AF9D00729E6
:10C1B00018D9301DB6F8068011F074FD80B24045E4
:10C1C00003BFB0883168012200201CBF0621022273
:10C1D00000E000220123C4E9002185F84830A06076
:10C1E00011F0AEBF034A082009F0CAF868FA03004C
:10C1F00058FA030078FA0300F0B503AF2DE9000701
:10C20000044691F844000D4600B303286AD105F1B5
:10C21000300008F00BFD298CAB6A8B425FD3686A53
:10C2200011F060FD05F12403D5F81C80B5F820A0BD
:10C230000ECB984226D14FF6FF7022EA000E104630
:10C240000E4652464FF0020C414619E0D5E902264F
:10C25000B5F810A0D5E90081A5F820A0EE61C5E9E8
:10C2600009129EB10AF1030ED5F818C02EF0030092
:10C27000EE6282420ED20EF4803E08264FF0030C8E
:10C28000824612E04FF0000C46460CE000264FF0CC
:10C29000010C08E06B6903F1080909EB0003634531
:10C2A00012D94FF0000C4FF0000E012004F10803EA
:10C2B00085F844001FFA8AF040EA0E00C4E900C67F
:10C2C00007C3BDE80007F0BD094BFCF798FD00224D
:10C2D000C5E90C8085F84020C5E90E1997E7054AA5
:10C2E00011F022FE014809F0B9FF00BF98FA0300DF
:10C2F00088FA0300A8FA0300F0B503AF2DE9F80FA0
:10C30000804691F844000C469246DFE800F003C7EF
:10C31000CE1A79ADCDE902A82546D4F81C80A146F5
:10C32000D4F800B0D4E902A02169C4E908B0002023
:10C33000C4E913B8C4E90A1805F88C0F49F848AFE6
:10C3400010E0254615F88C0FA5F1440920B103280B
:10C3500028D0564809F082FFCDE902A8D4E912ABF3
:10C36000D4F8508004F154062021FF22304612F008
:10C37000F5FBDAF800006065BAF80400A4F858008C
:10C3800027F81E0CA7F11E0011F08CFCA4F85A002F
:10C39000002084F888000820C4E91F08DDE902A80D
:10C3A000C4E91DB604F17400514608F011F9C6B293
:10C3B000042E05D103200C212870C8F8001068E075
:10C3C00094F8880007F0D7F9012084F88C004846DB
:10C3D00007F092F9032E58D104F12003002084F8CD
:10C3E0005C0004F148060FCB02F0030522F00302C3
:10C3F000083323640FC68818C4E90C12C4E90E057B
:10C4000011F00EFFC6B2042E03D111F048FE042035
:10C410003FE094F85C0007F0AEF9032E35D1E56BF0
:10C420008DB304F160092021484612F0A1FA214B96
:10C43000284649462022FCF7E2FCD4E90E231E4D93
:10C4400000950AF065FFE06B033020F0030021281F
:10C4500027D2626B0021236C84F85C101A44216A95
:10C46000C4E91219C4E9140211F0DAFEC6B2042EAE
:10C4700003D111F014FE05200BE094F85C0007F0E6
:10C480007AF9032E01D10B2000E00420C8E9000650
:10C49000012084F8440005B011F02ABD044809F0D9
:10C4A000DDFE064A202108F06BFFFEDE48FA03009D
:10C4B00008FB030018FB030028FB030038FB030004
:10C4C000F0B503AF2DE9F80F804691F820000C4637
:10C4D000DFE800F0031F280C8100D4E90010D4E944
:10C4E0000223C4E90410C4E906231CE0264616F81A
:10C4F0008C0F40B103280FD1254615F8880F28B1BD
:10C5000003280CD126E0D4E9091013E0D4E90B107C
:10C5100016E05A4809F0A2FE574809F09FFE554818
:10C5200009F09CFEFEDE2646002246F8241F7060BD
:10C5300006F8682F0022254605F8882F45E91710D0
:10C54000C4E90D100023D1E9001284F8843004F10D
:10C550003C0307C304F13C016846FFF7F1FD009B73
:10C56000032B53D0BDF80A20BDF808E0DDF804C065
:10C570005BB1012B40D1656B0EF1030020F003008D
:10C580002E6830440830286001E0656B2E68012079
:10C590000025002B84F88C0084F888004EEA0240C5
:10C5A000C4E91C3CC4E91E0644D0D4E906326662E4
:10C5B000002BA5615AD0D4E904050021D346406878
:10C5C00084F86C10A4F838E0C4E90F604E46C4E962
:10C5D0000A53C4E90C2C04F128016846FFF70CFE4D
:10C5E0000098042819D0DDE903A902281AD2C4E969
:10C5F00006A9D4E9041096E7BCF1060F1FD1606BC1
:10C60000016808310160D4E90D109BE70320022185
:10C6100030702870C8F8001023E00220C8F800002D
:10C6200004201EE0DDE901C107D1626A0025D3467E
:10C630004E460FE04FF0000C0CE001250AE001250A
:10C6400002204EEA024184F88C5084F88850C4E9F4
:10C650001C0CA167C8E9005C0120C8E9021BC8E9FD
:10C66000046284F8200005B011F042BC044809F0CF
:10C67000C3FC00BFC8FA0300B8FA030048FB03007C
:10C6800058FB0300F0B503AF4DF804BD054691F823
:10C6900030000C4620B103280AD0144809F0DEFD12
:10C6A000002004F10C0684F82C0094E80B000BC663
:10C6B00004F10C00114607F019FFC6B2042E03D195
:10C6C0000C20286003200DE094F82C0007F053F8AC
:10C6D000F01E18BF30460421032E08BF0B21C5E908
:10C6E0000010012084F8300011F022BC9CFB0300F4
:10C6F00029B11044B0FBF1F202FB1100704780B584
:10C700006F46014809F097FDACFB0300081A38BFDB
:10C710000020000B1FBF511CB1FBF0F202FB1010F8
:10C72000704780B56F46014809F085FDBCFB0300EA
:10C73000F0B503AF4DF8048D804691F840000C46EB
:10C7400020B1032812D0184809F088FD04F108062A
:10C75000002084F83C004ACE01EB0636206806F53E
:10C760008055C4E90513C4E90706656204F11C009D
:10C77000114607F0BBFEC6B2042E03D111F08FFCA8
:10C7800003200DE094F83C0006F0F5FFF01E18BF02
:10C7900030460421032E08BF0B21C8E900100120F8
:10C7A00084F8400011F078BCCCFB0300E0B502AF88
:10C7B00000210122CDE90021012100F00BF88CBD00
:10C7C000E0B502AF00210122CDE9002100F002F81E
:10C7D0008CBDD4D4F0B503AF2DE9800F0578D4B269
:10C7E0008A46834600264FF00108B44218D00AEB6F
:10C7F00006095FEAD90015D1D7E90201324612F0E5
:10C800009DF8C0075FFA89F008FA00F045EA0001D8
:10C8100008BF25EA00018BF8001001360D46E4E759
:10C8200011F08BBC014A11F09BFB00BF7C1E040081
:10C83000F0B503AF2DE9000FADF68C6D824600F622
:10C840008A1890F8A00A8B460AF6B82225920AF1B7
:10C8500028022292CDE926B8DFE810F00C00581C1F
:10C86000581C0702C601D406D901B6013B14DF01EA
:10C87000C016B10122980024514620228AF8B54AF8
:10C88000AAF8B34A11F0C3FD40F201104C22AAF8F5
:10C89000B60ADAE90801CAE912010AF55C71DAF8A8
:10C8A000BC03CAF8C4030AF5727011F0F5FFDAF898
:10C8B000C0030121CAF814040DF5B960DAE9F48661
:10C8C00000220023CAE914868DF8C845012510F01E
:10C8D0005BF90DF5B9600221012200239DF8C8958E
:10C8E0008DF8C84510F050F99DF8C8050622E449B6
:10C8F0000002CAF8208401F58831DFF89483CAF871
:10C900004D141821CAF81C044FF400608AF836242C
:10C910008AF845940AF21C49DE4ACAF83814DE49FE
:10C92000CAF82C0408F10800AAF82664AAF82464BE
:10C930000AF241468AF84C54AAF834548AF844441E
:10C94000CAF83C44CAF84024AAF84A44CAF8464403
:10C95000CAF81854CAF82854CAF83014BFF35F8FC5
:10C96000D0E84F1F002940F0E783C0E8415F00296D
:10C97000F6D1BFF35F8FC9499AF84C04002818BF5D
:10C980000AF24D4010DF11F0EAFB40F0FE83BAF8E6
:10C9900034140DF5B965BAF8380411F0010108BF77
:10C9A000032001249AF836240029ADF8CC058DF82F
:10C9B000C84508BF2246202029468DF8CA250BF01D
:10C9C00069FCBAF8300468B10021BAF83204CDF835
:10C9D000CE150DF5B961CDF8CA0523208DF8C845EF
:10C9E0000BF058FC9AF83A0401280BD19AF83B0452
:10C9F0000DF5B9618DF8CA0501208DF8C805212013
:10CA00000BF048FC9AF83C0401280BD19AF83D043D
:10CA10000DF5B9618DF8CA0501208DF8C8052220F1
:10CA20000BF038FC9AF83E04012808D19AF83F042C
:10CA30000DF5B9618DF8C80501200BF02BFC9AF8B3
:10CA4000400401280AD130790DF5B9618DF8CC0583
:10CA50003068CDF8C80540200BF01CFCDAF818044B
:10CA6000012807D199E80E0028460EC0294641202A
:10CA70000BF010FC9AF84604012808D19AF84704F4
:10CA80000DF5B9618DF8C80542200BF003FC9AF84A
:10CA90004804012808D19AF849040DF5B9618DF8C8
:10CAA000C80543200BF0F6FB9AF84A04012808D188
:10CAB0009AF84B040DF5B9618DF8C805A0200BF06C
:10CAC000E9FBDAF82804012808D1DAF82C040DF57E
:10CAD000B961CDF8C805A1200BF0DCFB704D0DF558
